{
  "transactions": [
    {
      "hash": "0x39837e6344099ba90ac11e36656344e26aae1d357818cc37ad8110caa17ce1f1",
      "transactionType": "CALL",
      "contractName": null,
      "contractAddress": "0x779877a7b0d9e8603169ddbd7836e478b4624789",
      "function": "transferAndCall(address,uint256,bytes)",
      "arguments": [
        "0x9DdfaCa8183c41ad55329BdeeD9F6A8d53168B1B",
        "3000000000000000000",
        "0x26008656ddb022d054a80b7c5ccc2b299bf2fcce3928a88530034515ac05bc1d"
      ],
      "transaction": {
        "from": "0x92d46ac969b1f1405ea78f7f0cbe4f61e1f1cb34",
        "to": "0x779877a7b0d9e8603169ddbd7836e478b4624789",
        "gas": "0x1603d",
        "value": "0x0",
        "input": "0x4000aea00000000000000000000000009ddfaca8183c41ad55329bdeed9f6a8d53168b1b00000000000000000000000000000000000000000000000029a2241af62c00000000000000000000000000000000000000000000000000000000000000000060000000000000000000000000000000000000000000000000000000000000002026008656ddb022d054a80b7c5ccc2b299bf2fcce3928a88530034515ac05bc1d",
        "nonce": "0x2",
        "chainId": "0xaa36a7"
      },
      "additionalContracts": [],
      "isFixedGasLimit": false
    }
  ],
  "receipts": [
    {
      "status": "0x1",
      "cumulativeGasUsed": "0xad0d2c",
      "logs": [
        {
          "address": "0x779877a7b0d9e8603169ddbd7836e478b4624789",
          "topics": [
            "0xddf252ad1be2c89b69c2b068fc378daa952ba7f163c4a11628f55a4df523b3ef",
            "0x00000000000000000000000092d46ac969b1f1405ea78f7f0cbe4f61e1f1cb34",
            "0x0000000000000000000000009ddfaca8183c41ad55329bdeed9f6a8d53168b1b"
          ],
          "data": "0x00000000000000000000000000000000000000000000000029a2241af62c0000",
          "blockHash": "0x9faa16e2c1f5e047f3bdd0dd981ec494a54d25d4df8530d3b453e8fd4e50aee1",
          "blockNumber": "0x8717c8",
          "blockTimestamp": "0x68861058",
          "transactionHash": "0x39837e6344099ba90ac11e36656344e26aae1d357818cc37ad8110caa17ce1f1",
          "transactionIndex": "0x67",
          "logIndex": "0xad",
          "removed": false
        },
        {
          "address": "0x779877a7b0d9e8603169ddbd7836e478b4624789",
          "topics": [
            "0xe19260aff97b920c7df27010903aeb9c8d2be5d310a2c67824cf3f15396e4c16",
            "0x00000000000000000000000092d46ac969b1f1405ea78f7f0cbe4f61e1f1cb34",
            "0x0000000000000000000000009ddfaca8183c41ad55329bdeed9f6a8d53168b1b"
          ],
          "data": "0x00000000000000000000000000000000000000000000000029a2241af62c00000000000000000000000000000000000000000000000000000000000000000040000000000000000000000000000000000000000000000000000000000000002026008656ddb022d054a80b7c5ccc2b299bf2fcce3928a88530034515ac05bc1d",
          "blockHash": "0x9faa16e2c1f5e047f3bdd0dd981ec494a54d25d4df8530d3b453e8fd4e50aee1",
          "blockNumber": "0x8717c8",
          "blockTimestamp": "0x68861058",
          "transactionHash": "0x39837e6344099ba90ac11e36656344e26aae1d357818cc37ad8110caa17ce1f1",
          "transactionIndex": "0x67",
          "logIndex": "0xae",
          "removed": false
        },
        {
          "address": "0x9ddfaca8183c41ad55329bdeed9f6a8d53168b1b",
          "topics": [
            "0x1ced9348ff549fceab2ac57cd3a9de38edaaab274b725ee82c23e8fc8c4eec7a",
            "0x26008656ddb022d054a80b7c5ccc2b299bf2fcce3928a88530034515ac05bc1d"
          ],
          "data": "0x0000000000000000000000000000000000000000000000004563918244f400000000000000000000000000000000000000000000000000006f05b59d3b200000",
          "blockHash": "0x9faa16e2c1f5e047f3bdd0dd981ec494a54d25d4df8530d3b453e8fd4e50aee1",
          "blockNumber": "0x8717c8",
          "blockTimestamp": "0x68861058",
          "transactionHash": "0x39837e6344099ba90ac11e36656344e26aae1d357818cc37ad8110caa17ce1f1",
          "transactionIndex": "0x67",
          "logIndex": "0xaf",
          "removed": false
        }
      ],
      "logsBloom": "0x000000040000000000004000000000000000000000a0000000000000020000000000000000000000000000000000000000000000000020000000000000000000000000000000000000000008000000000000000000000000000020000020000008000000000000000000000000000000000000400000000800000010000040000000000000000000000000010000800000000020000000000008000000000000000000000000000000000000010000000000000000000000000004000000000000000002000000000000000000000000000000000000000100000000000000000010000000000000800000000000000000000000000000000000000000000000",
      "type": "0x2",
      "transactionHash": "0x39837e6344099ba90ac11e36656344e26aae1d357818cc37ad8110caa17ce1f1",
      "transactionIndex": "0x67",
      "blockHash": "0x9faa16e2c1f5e047f3bdd0dd981ec494a54d25d4df8530d3b453e8fd4e50aee1",
      "blockNumber": "0x8717c8",
      "gasUsed": "0xf0d9",
      "effectiveGasPrice": "0x17ca23fb",
      "from": "0x92d46ac969b1f1405ea78f7f0cbe4f61e1f1cb34",
      "to": "0x779877a7b0d9e8603169ddbd7836e478b4624789",
      "contractAddress": null
    }
  ],
  "libraries": [],
  "pending": [],
  "returns": {},
  "timestamp": 1753616470,
  "chain": 11155111,
  "commit": null
}